{
  "abi": [
    {
      "type": "constructor",
      "inputs": [
        {
          "name": "_admin",
          "type": "address",
          "internalType": "address"
        }
      ],
      "stateMutability": "nonpayable"
    },
    {
      "type": "function",
      "name": "ADMIN_ROLE",
      "inputs": [],
      "outputs": [
        {
          "name": "",
          "type": "bytes32",
          "internalType": "bytes32"
        }
      ],
      "stateMutability": "view"
    },
    {
      "type": "function",
      "name": "DEFAULT_ADMIN_ROLE",
      "inputs": [],
      "outputs": [
        {
          "name": "",
          "type": "bytes32",
          "internalType": "bytes32"
        }
      ],
      "stateMutability": "view"
    },
    {
      "type": "function",
      "name": "HR_ROLE",
      "inputs": [],
      "outputs": [
        {
          "name": "",
          "type": "bytes32",
          "internalType": "bytes32"
        }
      ],
      "stateMutability": "view"
    },
    {
      "type": "function",
      "name": "activateEmployee",
      "inputs": [
        {
          "name": "_employee",
          "type": "address",
          "internalType": "address"
        }
      ],
      "outputs": [],
      "stateMutability": "nonpayable"
    },
    {
      "type": "function",
      "name": "activeEmployees",
      "inputs": [],
      "outputs": [
        {
          "name": "",
          "type": "uint256",
          "internalType": "uint256"
        }
      ],
      "stateMutability": "view"
    },
    {
      "type": "function",
      "name": "addEmployee",
      "inputs": [
        {
          "name": "_employee",
          "type": "address",
          "internalType": "address"
        },
        {
          "name": "_name",
          "type": "string",
          "internalType": "string"
        },
        {
          "name": "_salary",
          "type": "uint256",
          "internalType": "uint256"
        },
        {
          "name": "_role",
          "type": "string",
          "internalType": "string"
        }
      ],
      "outputs": [],
      "stateMutability": "nonpayable"
    },
    {
      "type": "function",
      "name": "deactivateEmployee",
      "inputs": [
        {
          "name": "_employee",
          "type": "address",
          "internalType": "address"
        }
      ],
      "outputs": [],
      "stateMutability": "nonpayable"
    },
    {
      "type": "function",
      "name": "employeeAddresses",
      "inputs": [
        {
          "name": "",
          "type": "uint256",
          "internalType": "uint256"
        }
      ],
      "outputs": [
        {
          "name": "",
          "type": "address",
          "internalType": "address"
        }
      ],
      "stateMutability": "view"
    },
    {
      "type": "function",
      "name": "employees",
      "inputs": [
        {
          "name": "",
          "type": "address",
          "internalType": "address"
        }
      ],
      "outputs": [
        {
          "name": "name",
          "type": "string",
          "internalType": "string"
        },
        {
          "name": "salary",
          "type": "uint256",
          "internalType": "uint256"
        },
        {
          "name": "isActive",
          "type": "bool",
          "internalType": "bool"
        },
        {
          "name": "startDate",
          "type": "uint256",
          "internalType": "uint256"
        },
        {
          "name": "role",
          "type": "string",
          "internalType": "string"
        }
      ],
      "stateMutability": "view"
    },
    {
      "type": "function",
      "name": "getActiveEmployees",
      "inputs": [],
      "outputs": [
        {
          "name": "",
          "type": "address[]",
          "internalType": "address[]"
        }
      ],
      "stateMutability": "view"
    },
    {
      "type": "function",
      "name": "getEmployee",
      "inputs": [
        {
          "name": "_employee",
          "type": "address",
          "internalType": "address"
        }
      ],
      "outputs": [
        {
          "name": "name",
          "type": "string",
          "internalType": "string"
        },
        {
          "name": "salary",
          "type": "uint256",
          "internalType": "uint256"
        },
        {
          "name": "isActive",
          "type": "bool",
          "internalType": "bool"
        }
      ],
      "stateMutability": "view"
    },
    {
      "type": "function",
      "name": "getRoleAdmin",
      "inputs": [
        {
          "name": "role",
          "type": "bytes32",
          "internalType": "bytes32"
        }
      ],
      "outputs": [
        {
          "name": "",
          "type": "bytes32",
          "internalType": "bytes32"
        }
      ],
      "stateMutability": "view"
    },
    {
      "type": "function",
      "name": "getTotalMonthlyCost",
      "inputs": [],
      "outputs": [
        {
          "name": "",
          "type": "uint256",
          "internalType": "uint256"
        }
      ],
      "stateMutability": "view"
    },
    {
      "type": "function",
      "name": "grantRole",
      "inputs": [
        {
          "name": "role",
          "type": "bytes32",
          "internalType": "bytes32"
        },
        {
          "name": "account",
          "type": "address",
          "internalType": "address"
        }
      ],
      "outputs": [],
      "stateMutability": "nonpayable"
    },
    {
      "type": "function",
      "name": "hasRole",
      "inputs": [
        {
          "name": "role",
          "type": "bytes32",
          "internalType": "bytes32"
        },
        {
          "name": "account",
          "type": "address",
          "internalType": "address"
        }
      ],
      "outputs": [
        {
          "name": "",
          "type": "bool",
          "internalType": "bool"
        }
      ],
      "stateMutability": "view"
    },
    {
      "type": "function",
      "name": "isActiveEmployee",
      "inputs": [
        {
          "name": "_employee",
          "type": "address",
          "internalType": "address"
        }
      ],
      "outputs": [
        {
          "name": "",
          "type": "bool",
          "internalType": "bool"
        }
      ],
      "stateMutability": "view"
    },
    {
      "type": "function",
      "name": "renounceRole",
      "inputs": [
        {
          "name": "role",
          "type": "bytes32",
          "internalType": "bytes32"
        },
        {
          "name": "callerConfirmation",
          "type": "address",
          "internalType": "address"
        }
      ],
      "outputs": [],
      "stateMutability": "nonpayable"
    },
    {
      "type": "function",
      "name": "revokeRole",
      "inputs": [
        {
          "name": "role",
          "type": "bytes32",
          "internalType": "bytes32"
        },
        {
          "name": "account",
          "type": "address",
          "internalType": "address"
        }
      ],
      "outputs": [],
      "stateMutability": "nonpayable"
    },
    {
      "type": "function",
      "name": "supportsInterface",
      "inputs": [
        {
          "name": "interfaceId",
          "type": "bytes4",
          "internalType": "bytes4"
        }
      ],
      "outputs": [
        {
          "name": "",
          "type": "bool",
          "internalType": "bool"
        }
      ],
      "stateMutability": "view"
    },
    {
      "type": "function",
      "name": "totalEmployees",
      "inputs": [],
      "outputs": [
        {
          "name": "",
          "type": "uint256",
          "internalType": "uint256"
        }
      ],
      "stateMutability": "view"
    },
    {
      "type": "function",
      "name": "updateEmployee",
      "inputs": [
        {
          "name": "_employee",
          "type": "address",
          "internalType": "address"
        },
        {
          "name": "_name",
          "type": "string",
          "internalType": "string"
        },
        {
          "name": "_salary",
          "type": "uint256",
          "internalType": "uint256"
        },
        {
          "name": "_role",
          "type": "string",
          "internalType": "string"
        }
      ],
      "outputs": [],
      "stateMutability": "nonpayable"
    },
    {
      "type": "event",
      "name": "EmployeeActivated",
      "inputs": [
        {
          "name": "employee",
          "type": "address",
          "indexed": true,
          "internalType": "address"
        }
      ],
      "anonymous": false
    },
    {
      "type": "event",
      "name": "EmployeeAdded",
      "inputs": [
        {
          "name": "employee",
          "type": "address",
          "indexed": true,
          "internalType": "address"
        },
        {
          "name": "name",
          "type": "string",
          "indexed": false,
          "internalType": "string"
        },
        {
          "name": "salary",
          "type": "uint256",
          "indexed": false,
          "internalType": "uint256"
        }
      ],
      "anonymous": false
    },
    {
      "type": "event",
      "name": "EmployeeDeactivated",
      "inputs": [
        {
          "name": "employee",
          "type": "address",
          "indexed": true,
          "internalType": "address"
        }
      ],
      "anonymous": false
    },
    {
      "type": "event",
      "name": "EmployeeUpdated",
      "inputs": [
        {
          "name": "employee",
          "type": "address",
          "indexed": true,
          "internalType": "address"
        },
        {
          "name": "name",
          "type": "string",
          "indexed": false,
          "internalType": "string"
        },
        {
          "name": "salary",
          "type": "uint256",
          "indexed": false,
          "internalType": "uint256"
        }
      ],
      "anonymous": false
    },
    {
      "type": "event",
      "name": "RoleAdminChanged",
      "inputs": [
        {
          "name": "role",
          "type": "bytes32",
          "indexed": true,
          "internalType": "bytes32"
        },
        {
          "name": "previousAdminRole",
          "type": "bytes32",
          "indexed": true,
          "internalType": "bytes32"
        },
        {
          "name": "newAdminRole",
          "type": "bytes32",
          "indexed": true,
          "internalType": "bytes32"
        }
      ],
      "anonymous": false
    },
    {
      "type": "event",
      "name": "RoleGranted",
      "inputs": [
        {
          "name": "role",
          "type": "bytes32",
          "indexed": true,
          "internalType": "bytes32"
        },
        {
          "name": "account",
          "type": "address",
          "indexed": true,
          "internalType": "address"
        },
        {
          "name": "sender",
          "type": "address",
          "indexed": true,
          "internalType": "address"
        }
      ],
      "anonymous": false
    },
    {
      "type": "event",
      "name": "RoleRevoked",
      "inputs": [
        {
          "name": "role",
          "type": "bytes32",
          "indexed": true,
          "internalType": "bytes32"
        },
        {
          "name": "account",
          "type": "address",
          "indexed": true,
          "internalType": "address"
        },
        {
          "name": "sender",
          "type": "address",
          "indexed": true,
          "internalType": "address"
        }
      ],
      "anonymous": false
    },
    {
      "type": "error",
      "name": "AccessControlBadConfirmation",
      "inputs": []
    },
    {
      "type": "error",
      "name": "AccessControlUnauthorizedAccount",
      "inputs": [
        {
          "name": "account",
          "type": "address",
          "internalType": "address"
        },
        {
          "name": "neededRole",
          "type": "bytes32",
          "internalType": "bytes32"
        }
      ]
    },
    {
      "type": "error",
      "name": "InvalidEmployeeAddress",
      "inputs": []
    },
    {
      "type": "error",
      "name": "NameCannotBeEmpty",
      "inputs": []
    }
  ],
  "bytecode": {
    "object": "0x608060405234801561000f575f5ffd5b5060405161298438038061298483398181016040528101906100319190610269565b6100435f5f1b826100ac60201b60201c565b506100747fa49807205ce4d355092ef5a8a18f56e8913cf4a201fbe287825b095693c21775826100ac60201b60201c565b506100a57ffd70517941c75212b0f9013e45c47a37d6d983c5304288c7af285f2ea40cbba7826100ac60201b60201c565b5050610294565b5f6100bd83836101a160201b60201c565b6101975760015f5f8581526020019081526020015f205f015f8473ffffffffffffffffffffffffffffffffffffffff1673ffffffffffffffffffffffffffffffffffffffff1681526020019081526020015f205f6101000a81548160ff02191690831515021790555061013461020460201b60201c565b73ffffffffffffffffffffffffffffffffffffffff168273ffffffffffffffffffffffffffffffffffffffff16847f2f8788117e7eff1d82e926ec794901d17c78024a50270940304540a733656f0d60405160405180910390a46001905061019b565b5f90505b92915050565b5f5f5f8481526020019081526020015f205f015f8373ffffffffffffffffffffffffffffffffffffffff1673ffffffffffffffffffffffffffffffffffffffff1681526020019081526020015f205f9054906101000a900460ff16905092915050565b5f33905090565b5f5ffd5b5f73ffffffffffffffffffffffffffffffffffffffff82169050919050565b5f6102388261020f565b9050919050565b6102488161022e565b8114610252575f5ffd5b50565b5f815190506102638161023f565b92915050565b5f6020828403121561027e5761027d61020b565b5b5f61028b84828501610255565b91505092915050565b6126e3806102a15f395ff3fe608060405234801561000f575f5ffd5b5060043610610135575f3560e01c806357a3ffdc116100b657806391d148541161007a57806391d1485414610339578063a086ce1514610369578063a217fddf14610399578063d0678947146103b7578063d547741f146103eb578063f3c6a1981461040757610135565b806357a3ffdc146102975780636a663e18146102b35780637521720b146102cf57806375b238fc146102ff5780637a930d2f1461031d57610135565b806332648e09116100fd57806332648e09146101ef57806336568abe14610221578063377d6e381461023d57806347e23df91461025b57806352b9b9731461027957610135565b806301ffc9a714610139578063028a38c5146101695780631b75624714610185578063248a9ca3146101a35780632f2ff15d146101d3575b5f5ffd5b610153600480360381019061014e91906119a6565b610425565b60405161016091906119eb565b60405180910390f35b610183600480360381019061017e9190611af2565b61049e565b005b61018d6108b4565b60405161019a9190611ba4565b60405180910390f35b6101bd60048036038101906101b89190611bf0565b6108ba565b6040516101ca9190611c2a565b60405180910390f35b6101ed60048036038101906101e89190611c43565b6108d6565b005b61020960048036038101906102049190611c81565b6108f8565b60405161021893929190611d1c565b60405180910390f35b61023b60048036038101906102369190611c43565b610ab0565b005b610245610b2b565b6040516102529190611ba4565b60405180910390f35b610263610c6e565b6040516102709190611e0f565b60405180910390f35b610281610e0f565b60405161028e9190611ba4565b60405180910390f35b6102b160048036038101906102ac9190611c81565b610e15565b005b6102cd60048036038101906102c89190611c81565b61100e565b005b6102e960048036038101906102e49190611e2f565b611179565b6040516102f69190611e69565b60405180910390f35b6103076111b4565b6040516103149190611c2a565b60405180910390f35b61033760048036038101906103329190611af2565b6111d8565b005b610353600480360381019061034e9190611c43565b611454565b60405161036091906119eb565b60405180910390f35b610383600480360381019061037e9190611c81565b6114b7565b60405161039091906119eb565b60405180910390f35b6103a161150c565b6040516103ae9190611c2a565b60405180910390f35b6103d160048036038101906103cc9190611c81565b611512565b6040516103e2959493929190611e82565b60405180910390f35b61040560048036038101906104009190611c43565b61165c565b005b61040f61167e565b60405161041c9190611c2a565b60405180910390f35b5f7f7965db0b000000000000000000000000000000000000000000000000000000007bffffffffffffffffffffffffffffffffffffffffffffffffffffffff1916827bffffffffffffffffffffffffffffffffffffffffffffffffffffffff191614806104975750610496826116a2565b5b9050919050565b7ffd70517941c75212b0f9013e45c47a37d6d983c5304288c7af285f2ea40cbba76104c88161170b565b5f73ffffffffffffffffffffffffffffffffffffffff168773ffffffffffffffffffffffffffffffffffffffff160361052d576040517f8b5a916800000000000000000000000000000000000000000000000000000000815260040160405180910390fd5b5f86869050101561056a576040517fcf48253200000000000000000000000000000000000000000000000000000000815260040160405180910390fd5b5f86869050116105af576040517f08c379a00000000000000000000000000000000000000000000000000000000081526004016105a690611f2b565b60405180910390fd5b5f84116105f1576040517f08c379a00000000000000000000000000000000000000000000000000000000081526004016105e890611f93565b60405180910390fd5b60015f8873ffffffffffffffffffffffffffffffffffffffff1673ffffffffffffffffffffffffffffffffffffffff1681526020019081526020015f206002015f9054906101000a900460ff161561067e576040517f08c379a000000000000000000000000000000000000000000000000000000000815260040161067590611ffb565b60405180910390fd5b6040518060a0016040528087878080601f0160208091040260200160405190810160405280939291908181526020018383808284375f81840152601f19601f82011690508083019250505050505050815260200185815260200160011515815260200142815260200184848080601f0160208091040260200160405190810160405280939291908181526020018383808284375f81840152601f19601f8201169050808301925050505050505081525060015f8973ffffffffffffffffffffffffffffffffffffffff1673ffffffffffffffffffffffffffffffffffffffff1681526020019081526020015f205f820151815f01908161077e9190612243565b50602082015181600101556040820151816002015f6101000a81548160ff0219169083151502179055506060820151816003015560808201518160040190816107c79190612243565b50905050600287908060018154018082558091505060019003905f5260205f20015f9091909190916101000a81548173ffffffffffffffffffffffffffffffffffffffff021916908373ffffffffffffffffffffffffffffffffffffffff16021790555060035f81548092919061083d9061233f565b919050555060045f8154809291906108549061233f565b91905055508673ffffffffffffffffffffffffffffffffffffffff167fee0cb94d5bca51c650dbd4f3c67a89042ab668fe15fc004da654808bea4410678787876040516108a3939291906123c0565b60405180910390a250505050505050565b60045481565b5f5f5f8381526020019081526020015f20600101549050919050565b6108df826108ba565b6108e88161170b565b6108f2838361171f565b50505050565b60605f5f5f60015f8673ffffffffffffffffffffffffffffffffffffffff1673ffffffffffffffffffffffffffffffffffffffff1681526020019081526020015f206040518060a00160405290815f8201805461095490612073565b80601f016020809104026020016040519081016040528092919081815260200182805461098090612073565b80156109cb5780601f106109a2576101008083540402835291602001916109cb565b820191905f5260205f20905b8154815290600101906020018083116109ae57829003601f168201915b5050505050815260200160018201548152602001600282015f9054906101000a900460ff1615151515815260200160038201548152602001600482018054610a1290612073565b80601f0160208091040260200160405190810160405280929190818152602001828054610a3e90612073565b8015610a895780601f10610a6057610100808354040283529160200191610a89565b820191905f5260205f20905b815481529060010190602001808311610a6c57829003601f168201915b5050505050815250509050805f015181602001518260400151935093509350509193909250565b610ab8611808565b73ffffffffffffffffffffffffffffffffffffffff168173ffffffffffffffffffffffffffffffffffffffff1614610b1c576040517f6697b23200000000000000000000000000000000000000000000000000000000815260040160405180910390fd5b610b26828261180f565b505050565b5f5f5f90505f5f90505b600280549050811015610c665760015f60028381548110610b5957610b586123f0565b5b905f5260205f20015f9054906101000a900473ffffffffffffffffffffffffffffffffffffffff1673ffffffffffffffffffffffffffffffffffffffff1673ffffffffffffffffffffffffffffffffffffffff1681526020019081526020015f206002015f9054906101000a900460ff1615610c595760015f60028381548110610be657610be56123f0565b5b905f5260205f20015f9054906101000a900473ffffffffffffffffffffffffffffffffffffffff1673ffffffffffffffffffffffffffffffffffffffff1673ffffffffffffffffffffffffffffffffffffffff1681526020019081526020015f206001015482610c56919061241d565b91505b8080600101915050610b35565b508091505090565b60605f60045467ffffffffffffffff811115610c8d57610c8c612019565b5b604051908082528060200260200182016040528015610cbb5781602001602082028036833780820191505090505b5090505f5f90505f5f90505b600280549050811015610e065760015f60028381548110610ceb57610cea6123f0565b5b905f5260205f20015f9054906101000a900473ffffffffffffffffffffffffffffffffffffffff1673ffffffffffffffffffffffffffffffffffffffff1673ffffffffffffffffffffffffffffffffffffffff1681526020019081526020015f206002015f9054906101000a900460ff1615610df95760028181548110610d7557610d746123f0565b5b905f5260205f20015f9054906101000a900473ffffffffffffffffffffffffffffffffffffffff16838381518110610db057610daf6123f0565b5b602002602001019073ffffffffffffffffffffffffffffffffffffffff16908173ffffffffffffffffffffffffffffffffffffffff16815250508180610df59061233f565b9250505b8080600101915050610cc7565b50819250505090565b60035481565b7ffd70517941c75212b0f9013e45c47a37d6d983c5304288c7af285f2ea40cbba7610e3f8161170b565b60015f8373ffffffffffffffffffffffffffffffffffffffff1673ffffffffffffffffffffffffffffffffffffffff1681526020019081526020015f206002015f9054906101000a900460ff1615610ecc576040517f08c379a0000000000000000000000000000000000000000000000000000000008152600401610ec39061249a565b60405180910390fd5b5f60015f8473ffffffffffffffffffffffffffffffffffffffff1673ffffffffffffffffffffffffffffffffffffffff1681526020019081526020015f205f018054610f1790612073565b905011610f59576040517f08c379a0000000000000000000000000000000000000000000000000000000008152600401610f5090612502565b60405180910390fd5b6001805f8473ffffffffffffffffffffffffffffffffffffffff1673ffffffffffffffffffffffffffffffffffffffff1681526020019081526020015f206002015f6101000a81548160ff02191690831515021790555060045f815480929190610fc29061233f565b91905055508173ffffffffffffffffffffffffffffffffffffffff167f4e3c87f233dd8939e20fb5bf2710b7fff85e2d4dbab07c34c761f2c0723aca0f60405160405180910390a25050565b7ffd70517941c75212b0f9013e45c47a37d6d983c5304288c7af285f2ea40cbba76110388161170b565b60015f8373ffffffffffffffffffffffffffffffffffffffff1673ffffffffffffffffffffffffffffffffffffffff1681526020019081526020015f206002015f9054906101000a900460ff166110c4576040517f08c379a00000000000000000000000000000000000000000000000000000000081526004016110bb9061256a565b60405180910390fd5b5f60015f8473ffffffffffffffffffffffffffffffffffffffff1673ffffffffffffffffffffffffffffffffffffffff1681526020019081526020015f206002015f6101000a81548160ff02191690831515021790555060045f81548092919061112d90612588565b91905055508173ffffffffffffffffffffffffffffffffffffffff167fc752135f7e9dd8cd89164e7513feed89162e931129bc1c99a0d92d989e93757d60405160405180910390a25050565b60028181548110611188575f80fd5b905f5260205f20015f915054906101000a900473ffffffffffffffffffffffffffffffffffffffff1681565b7fa49807205ce4d355092ef5a8a18f56e8913cf4a201fbe287825b095693c2177581565b7ffd70517941c75212b0f9013e45c47a37d6d983c5304288c7af285f2ea40cbba76112028161170b565b60015f8873ffffffffffffffffffffffffffffffffffffffff1673ffffffffffffffffffffffffffffffffffffffff1681526020019081526020015f206002015f9054906101000a900460ff1661128e576040517f08c379a000000000000000000000000000000000000000000000000000000000815260040161128590612502565b60405180910390fd5b5f86869050116112d3576040517f08c379a00000000000000000000000000000000000000000000000000000000081526004016112ca90611f2b565b60405180910390fd5b5f8411611315576040517f08c379a000000000000000000000000000000000000000000000000000000000815260040161130c90611f93565b60405180910390fd5b858560015f8a73ffffffffffffffffffffffffffffffffffffffff1673ffffffffffffffffffffffffffffffffffffffff1681526020019081526020015f205f0191826113639291906125b9565b508360015f8973ffffffffffffffffffffffffffffffffffffffff1673ffffffffffffffffffffffffffffffffffffffff1681526020019081526020015f2060010181905550828260015f8a73ffffffffffffffffffffffffffffffffffffffff1673ffffffffffffffffffffffffffffffffffffffff1681526020019081526020015f2060040191826113f89291906125b9565b508673ffffffffffffffffffffffffffffffffffffffff167f810f937cb0d9e92a2d7a721c65c3f2082cbb714126505d6bafbb58d9a0c92e6b878787604051611443939291906123c0565b60405180910390a250505050505050565b5f5f5f8481526020019081526020015f205f015f8373ffffffffffffffffffffffffffffffffffffffff1673ffffffffffffffffffffffffffffffffffffffff1681526020019081526020015f205f9054906101000a900460ff16905092915050565b5f60015f8373ffffffffffffffffffffffffffffffffffffffff1673ffffffffffffffffffffffffffffffffffffffff1681526020019081526020015f206002015f9054906101000a900460ff169050919050565b5f5f1b81565b6001602052805f5260405f205f91509050805f01805461153190612073565b80601f016020809104026020016040519081016040528092919081815260200182805461155d90612073565b80156115a85780601f1061157f576101008083540402835291602001916115a8565b820191905f5260205f20905b81548152906001019060200180831161158b57829003601f168201915b505050505090806001015490806002015f9054906101000a900460ff16908060030154908060040180546115db90612073565b80601f016020809104026020016040519081016040528092919081815260200182805461160790612073565b80156116525780601f1061162957610100808354040283529160200191611652565b820191905f5260205f20905b81548152906001019060200180831161163557829003601f168201915b5050505050905085565b611665826108ba565b61166e8161170b565b611678838361180f565b50505050565b7ffd70517941c75212b0f9013e45c47a37d6d983c5304288c7af285f2ea40cbba781565b5f7f01ffc9a7000000000000000000000000000000000000000000000000000000007bffffffffffffffffffffffffffffffffffffffffffffffffffffffff1916827bffffffffffffffffffffffffffffffffffffffffffffffffffffffff1916149050919050565b61171c81611717611808565b6118f8565b50565b5f61172a8383611454565b6117fe5760015f5f8581526020019081526020015f205f015f8473ffffffffffffffffffffffffffffffffffffffff1673ffffffffffffffffffffffffffffffffffffffff1681526020019081526020015f205f6101000a81548160ff02191690831515021790555061179b611808565b73ffffffffffffffffffffffffffffffffffffffff168273ffffffffffffffffffffffffffffffffffffffff16847f2f8788117e7eff1d82e926ec794901d17c78024a50270940304540a733656f0d60405160405180910390a460019050611802565b5f90505b92915050565b5f33905090565b5f61181a8383611454565b156118ee575f5f5f8581526020019081526020015f205f015f8473ffffffffffffffffffffffffffffffffffffffff1673ffffffffffffffffffffffffffffffffffffffff1681526020019081526020015f205f6101000a81548160ff02191690831515021790555061188b611808565b73ffffffffffffffffffffffffffffffffffffffff168273ffffffffffffffffffffffffffffffffffffffff16847ff6391f5c32d9c69d2a47ea670b442974b53935d1edc7fd64eb21e047a839171b60405160405180910390a4600190506118f2565b5f90505b92915050565b6119028282611454565b6119455780826040517fe2517d3f00000000000000000000000000000000000000000000000000000000815260040161193c929190612686565b60405180910390fd5b5050565b5f5ffd5b5f5ffd5b5f7fffffffff0000000000000000000000000000000000000000000000000000000082169050919050565b61198581611951565b811461198f575f5ffd5b50565b5f813590506119a08161197c565b92915050565b5f602082840312156119bb576119ba611949565b5b5f6119c884828501611992565b91505092915050565b5f8115159050919050565b6119e5816119d1565b82525050565b5f6020820190506119fe5f8301846119dc565b92915050565b5f73ffffffffffffffffffffffffffffffffffffffff82169050919050565b5f611a2d82611a04565b9050919050565b611a3d81611a23565b8114611a47575f5ffd5b50565b5f81359050611a5881611a34565b92915050565b5f5ffd5b5f5ffd5b5f5ffd5b5f5f83601f840112611a7f57611a7e611a5e565b5b8235905067ffffffffffffffff811115611a9c57611a9b611a62565b5b602083019150836001820283011115611ab857611ab7611a66565b5b9250929050565b5f819050919050565b611ad181611abf565b8114611adb575f5ffd5b50565b5f81359050611aec81611ac8565b92915050565b5f5f5f5f5f5f60808789031215611b0c57611b0b611949565b5b5f611b1989828a01611a4a565b965050602087013567ffffffffffffffff811115611b3a57611b3961194d565b5b611b4689828a01611a6a565b95509550506040611b5989828a01611ade565b935050606087013567ffffffffffffffff811115611b7a57611b7961194d565b5b611b8689828a01611a6a565b92509250509295509295509295565b611b9e81611abf565b82525050565b5f602082019050611bb75f830184611b95565b92915050565b5f819050919050565b611bcf81611bbd565b8114611bd9575f5ffd5b50565b5f81359050611bea81611bc6565b92915050565b5f60208284031215611c0557611c04611949565b5b5f611c1284828501611bdc565b91505092915050565b611c2481611bbd565b82525050565b5f602082019050611c3d5f830184611c1b565b92915050565b5f5f60408385031215611c5957611c58611949565b5b5f611c6685828601611bdc565b9250506020611c7785828601611a4a565b9150509250929050565b5f60208284031215611c9657611c95611949565b5b5f611ca384828501611a4a565b91505092915050565b5f81519050919050565b5f82825260208201905092915050565b8281835e5f83830152505050565b5f601f19601f8301169050919050565b5f611cee82611cac565b611cf88185611cb6565b9350611d08818560208601611cc6565b611d1181611cd4565b840191505092915050565b5f6060820190508181035f830152611d348186611ce4565b9050611d436020830185611b95565b611d5060408301846119dc565b949350505050565b5f81519050919050565b5f82825260208201905092915050565b5f819050602082019050919050565b611d8a81611a23565b82525050565b5f611d9b8383611d81565b60208301905092915050565b5f602082019050919050565b5f611dbd82611d58565b611dc78185611d62565b9350611dd283611d72565b805f5b83811015611e02578151611de98882611d90565b9750611df483611da7565b925050600181019050611dd5565b5085935050505092915050565b5f6020820190508181035f830152611e278184611db3565b905092915050565b5f60208284031215611e4457611e43611949565b5b5f611e5184828501611ade565b91505092915050565b611e6381611a23565b82525050565b5f602082019050611e7c5f830184611e5a565b92915050565b5f60a0820190508181035f830152611e9a8188611ce4565b9050611ea96020830187611b95565b611eb660408301866119dc565b611ec36060830185611b95565b8181036080830152611ed58184611ce4565b90509695505050505050565b7f4e616d652063616e6e6f7420626520656d7074790000000000000000000000005f82015250565b5f611f15601483611cb6565b9150611f2082611ee1565b602082019050919050565b5f6020820190508181035f830152611f4281611f09565b9050919050565b7f53616c617279206d7573742062652067726561746572207468616e20300000005f82015250565b5f611f7d601d83611cb6565b9150611f8882611f49565b602082019050919050565b5f6020820190508181035f830152611faa81611f71565b9050919050565b7f456d706c6f79656520616c7265616479206578697374730000000000000000005f82015250565b5f611fe5601783611cb6565b9150611ff082611fb1565b602082019050919050565b5f6020820190508181035f83015261201281611fd9565b9050919050565b7f4e487b71000000000000000000000000000000000000000000000000000000005f52604160045260245ffd5b7f4e487b71000000000000000000000000000000000000000000000000000000005f52602260045260245ffd5b5f600282049050600182168061208a57607f821691505b60208210810361209d5761209c612046565b5b50919050565b5f819050815f5260205f209050919050565b5f6020601f8301049050919050565b5f82821b905092915050565b5f600883026120ff7fffffffffffffffffffffffffffffffffffffffffffffffffffffffffffffffff826120c4565b61210986836120c4565b95508019841693508086168417925050509392505050565b5f819050919050565b5f61214461213f61213a84611abf565b612121565b611abf565b9050919050565b5f819050919050565b61215d8361212a565b6121716121698261214b565b8484546120d0565b825550505050565b5f5f905090565b612188612179565b612193818484612154565b505050565b5b818110156121b6576121ab5f82612180565b600181019050612199565b5050565b601f8211156121fb576121cc816120a3565b6121d5846120b5565b810160208510156121e4578190505b6121f86121f0856120b5565b830182612198565b50505b505050565b5f82821c905092915050565b5f61221b5f1984600802612200565b1980831691505092915050565b5f612233838361220c565b9150826002028217905092915050565b61224c82611cac565b67ffffffffffffffff81111561226557612264612019565b5b61226f8254612073565b61227a8282856121ba565b5f60209050601f8311600181146122ab575f8415612299578287015190505b6122a38582612228565b86555061230a565b601f1984166122b9866120a3565b5f5b828110156122e0578489015182556001820191506020850194506020810190506122bb565b868310156122fd57848901516122f9601f89168261220c565b8355505b6001600288020188555050505b505050505050565b7f4e487b71000000000000000000000000000000000000000000000000000000005f52601160045260245ffd5b5f61234982611abf565b91507fffffffffffffffffffffffffffffffffffffffffffffffffffffffffffffffff820361237b5761237a612312565b5b600182019050919050565b828183375f83830152505050565b5f61239f8385611cb6565b93506123ac838584612386565b6123b583611cd4565b840190509392505050565b5f6040820190508181035f8301526123d9818587612394565b90506123e86020830184611b95565b949350505050565b7f4e487b71000000000000000000000000000000000000000000000000000000005f52603260045260245ffd5b5f61242782611abf565b915061243283611abf565b925082820190508082111561244a57612449612312565b5b92915050565b7f456d706c6f79656520616c7265616479206163746976650000000000000000005f82015250565b5f612484601783611cb6565b915061248f82612450565b602082019050919050565b5f6020820190508181035f8301526124b181612478565b9050919050565b7f456d706c6f79656520646f6573206e6f742065786973740000000000000000005f82015250565b5f6124ec601783611cb6565b91506124f7826124b8565b602082019050919050565b5f6020820190508181035f830152612519816124e0565b9050919050565b7f456d706c6f796565206e6f7420616374697665000000000000000000000000005f82015250565b5f612554601383611cb6565b915061255f82612520565b602082019050919050565b5f6020820190508181035f83015261258181612548565b9050919050565b5f61259282611abf565b91505f82036125a4576125a3612312565b5b600182039050919050565b5f82905092915050565b6125c383836125af565b67ffffffffffffffff8111156125dc576125db612019565b5b6125e68254612073565b6125f18282856121ba565b5f601f83116001811461261e575f841561260c578287013590505b6126168582612228565b86555061267d565b601f19841661262c866120a3565b5f5b828110156126535784890135825560018201915060208501945060208101905061262e565b86831015612670578489013561266c601f89168261220c565b8355505b6001600288020188555050505b50505050505050565b5f6040820190506126995f830185611e5a565b6126a66020830184611c1b565b939250505056fea26469706673582212205940722853aadd37deff86b5cbb8a0b36100b9c758c2ed9e92c5f8dbbb6e663664736f6c634300081e0033",
    "linkReferences": {}
  },
  "methodIdentifiers": {
    "ADMIN_ROLE()": "75b238fc",
    "DEFAULT_ADMIN_ROLE()": "a217fddf",
    "HR_ROLE()": "f3c6a198",
    "activateEmployee(address)": "57a3ffdc",
    "activeEmployees()": "1b756247",
    "addEmployee(address,string,uint256,string)": "028a38c5",
    "deactivateEmployee(address)": "6a663e18",
    "employeeAddresses(uint256)": "7521720b",
    "employees(address)": "d0678947",
    "getActiveEmployees()": "47e23df9",
    "getEmployee(address)": "32648e09",
    "getRoleAdmin(bytes32)": "248a9ca3",
    "getTotalMonthlyCost()": "377d6e38",
    "grantRole(bytes32,address)": "2f2ff15d",
    "hasRole(bytes32,address)": "91d14854",
    "isActiveEmployee(address)": "a086ce15",
    "renounceRole(bytes32,address)": "36568abe",
    "revokeRole(bytes32,address)": "d547741f",
    "supportsInterface(bytes4)": "01ffc9a7",
    "totalEmployees()": "52b9b973",
    "updateEmployee(address,string,uint256,string)": "7a930d2f"
  },
  "id": 24
}